S0150000506F727461626C654C696768742E73726563DE
S113000019C020C01FC01EC01DC01CC01BC01AC008
S113001058C018C044C016C015C014C013C012C0C4
S113002011C010C00FC00EC00DC00CC00BC00AC060
S113003009C008C011241FBECFEFCDBFDFE3DEBF70
S113004002D057C0DDCF60E080E690E04CD060E0A5
S113005081E690E048D062E080E790E044D080916F
S1130060630080FDFCCFE0E0FAE081E0808383E080
S1130070818381E182878FEF93E086A397A380A792
S113008091A784E08093010478942FEF88E09DE3A6
S1130090215080409040E1F700C00000F6CF1F924D
S11300A00F920FB60F9211248F9384E0809306046D
S11300B080E180930B0A8F910F900FBE0F901F90D9
S11300C018951F920F920FB60F9211248F9384E00C
S11300D08093050481E080930B0A8F910F900FBEEB
S11300E00F901F901895DC0128ED209334006C9339
S10900F00895F894FFCF0F
S9030000FC
