S0150000506F727461626C654C696768742E73726563DE
S113000019C028C027C026C025C024C023C022C0D0
S11300101BC120C007C11EC01DC01CC01BC01AC00C
S113002019C0EFC017C016C015C014C013C012C049
S113003011C010C011241FBECFEFCDBFDFE3DEBF60
S11300402FE3A0E0BFE301C01D92AA30B207E1F79D
S11300506FD03BC2D5CF009739F0E0E0FAE021E160
S1130060228780A791A7089510920A0A84E08093BA
S1130070060408958091080680FD59C08091083FC8
S1130080811155C08091093FE82FF0E020911006BE
S113009030911106EE0FFF1FE050F14C20833183A5
S11300A0813041F018F0823049F00BC081E0809338
S11300B0093F09C082E08093093F05C01092093FBF
S11300C002C01092093F8091093F813081F028F0ED
S11300D08230B9F08330F9F027C0E0E0F6E083E045
S11300E0868384E1828384E080938A011DC0E0E0FA
S11300F0F6E087E0868384E0828382E080938A014D
S113010013C0E0E0F6E086E0868384E0828382E048
S113011080938A0109C0E0E0F6E08DE1868384E102
S1130120828384E080938A0181E08093083F08956C
S113013060E080E690E0C3D160E081E690E0BFD16A
S113014062E080E790E0BBD18091630080FDFCCF4A
S1130150E0E0FAE081E0808393E0918321E122876B
S113016086872FEF33E026A337A322E030E020A7D1
S113017031A7E0E4FAE025E0208326E021838483AC
S113018025E030E024873587E0E8F1E022E02287AB
S1130190828B8387238BE0EAF0E0108220E12183C5
S11301A0E0E0F6E021E8208324E1228320E22383B7
S11301B081878287968384E08093010478945ADF50
S11301C06091003F7091013F80E090E01F921F9288
S11301D022E02F9328E52F93A12CB12C6501EE2466
S11301E0EA9413E0F12E00E010E025E030E040E076
S11301F050E03CD0CB012FDF0F900F900F900F9069
S1130200DECF1F920F920FB60F9211248F9310928C
S1130210083F81E080930B068F910F900FBE0F90E3
S11302201F9018951F920F920FB60F9211248F935F
S113023084E08093060480E180930B0A8F910F90F1
S11302400FBE0F901F9018951F920F920FB60F922A
S113025011248F9384E08093050481E080930B0A3A
S11302608F910F900FBE0F901F9018954F925F9231
S11302706F927F92AF92BF92CF92DF92EF92FF92F2
S11302800F931F93CF93DF93CDB7DEB729013A01C4
S113029029893A894B895C89A216B306C406D50616
S11302A094F59B01AC01241935094609570969895C
S11302B07A898B899C896A197B098C099D099CD050
S11302C0A80197012419350946095709A4D0D60174
S11302D0C501820F931FA41FB51F49885A886B88D4
S11302E07C8884159505A605B70514F42C013D01F9
S11302F0C601B501A414B504C604D7040CF06DC03E
S1130300C301B2016AC029893A894B895C892A15DB
S11303103B054C055D058CF59B01AC0124193509A1
S11303204609570969897A898B899C896A197B09E5
S11303308C099D0961D0A801970124193509460942
S1130340570969D0D601C501820F931FA41FB51F99
S1130350760165018C159D05AE05BF0514F46C018D
S11303607D0169897A898B899C896C157D058E0547
S11303709F059CF5C701B60130C09B01AC0124194F
S113038035094609570969897A898B899C896A19CB
S11303907B098C099D0930D0A801970124193509DE
S11303A04609570938D0D601C501820F931FA41FEF
S11303B0B51F09891A892B893C8980179107A207DF
S11303C0B30714F48C019D01C601B501A016B10652
S11303D0C206D30614F4C901B801DF91CF911F916D
S11303E00F91FF90EF90DF90CF90BF90AF907F90F0
S11303F06F905F904F900895DB018F939F9327D068
S1130400BF91AF91A29F800D911DA39F900DB29FAC
S1130410900D11240895052E97FB16F400940FD027
S113042057FD05D01ED007FC02D046F408C05095F5
S11304304095309521953F4F4F4F5F4F08959095CC
S11304408095709561957F4F8F4F9F4F08952BD066
S1130450A59F900DB49F900DA49F800D911D112414
S11304600895A1E21A2EAA1BBB1BFD010DC0AA1FF1
S1130470BB1FEE1FFF1FA217B307E407F50720F009
S1130480A21BB30BE40BF50B661F771F881F991F84
S11304901A9469F760957095809590959B01AC01CD
S11304A0BD01CF010895A29FB001B39FC001A39FD6
S11304B001D0B29F700D811D1124911D0895DC019E
S11104C028ED209334006C930895F894FFCF38
S9030000FC
