:1000000019C028C027C026C025C024C023C022C0D4
:1000100086C020C072C01EC01DC01CC01BC01AC03C
:1000200019C018C017C016C015C014C013C012C024
:1000300011C010C011241FBECFEFCDBFDFE3DEBF64
:100040002FE3A0E0BFE301C01D92A230B207E1F7A9
:1000500008D07DC0D5CF6817790710F4862F972F69
:10006000089560E080E690E06CD060E081E690E08A
:1000700068D062E080E790E064D08091630080FD0A
:10008000FCCFE0E0FAE081E0808383E0818391E1CE
:1000900092872FEF33E026A337A322E030E020A79A
:1000A00031A7E0EAF0E0108290E19183E0E0F6E031
:1000B00091E8908394E1928390E29383868384E035
:1000C0008093010478948091080680FD0AC0E0E0E6
:1000D000F6E0808991898093003F9093013F81E011
:1000E000808768E572E08091003F9091013FB3DF27
:1000F0008093280A9093290AE6CF1F920F920FB699
:100100000F9211248F9384E08093060480E1809302
:100110000B0A8F910F900FBE0F901F9018951F9292
:100120000F920FB60F9211248F9384E080930504F1
:1001300081E080930B0A8F910F900FBE0F901F905C
:100140001895DC0128ED209334006C930895F89401
:02015000FFCFDF
:00000001FF
